:060000000A128A1589298D
:10000800F500831603131114092883128C1D0D287B
:100018000E2809288C1171087507930013288C1D68
:100028001628172813288C1172087104031D1D281F
:100038001E284228F60131287608373E84008313AB
:100048000008930027288C1D2A282B2827288C1184
:100058000130F3007308F607312870087602031C94
:100068003628372820288316031311153B288312B6
:100078008C1D3F2840283B288C119128013071069F
:100088007204031D482849289128F6017F28831601
:10009800031391154F2883128C1D532854284F2879
:1000A8008C111308F30076083E3E8400730883130E
:1000B80080007008FF3EF300FF3003180030F400A2
:1000C800760873067404031D6A286B286F28831644
:1000D80003139116722883160313911211167428AC
:1000E80083128C1D7828792874288C110130F3002C
:1000F8007308F6077F2870087602031C8428852871
:100108004B28831603131115892883128C1D8D28FB
:100118008E2889288C1191289128080083160313AA
:100128008601383087001730850083120313930146
:10013800C0308316031394003830831203139400DD
:1001480083160313910132309300831203138C1129
:100158000717871785150630831603139F0001308C
:100168000A128A15EC210A128A1102300A128A151B
:10017800EC210A128A1106300A128A15EC210A1299
:100188008A110C300A128A15EC210A128A113830A9
:100198000A128A15EC210A128A110C3083120313F1
:1001A80097000C309D00FF30831603139200053032
:1001B80083120313920032309B0095010A128A15AC
:1001C80096210A128A1100300A128A15AA210A12E7
:1001D8008A1172300A128A1511220A128A111430F1
:1001E8000A128A15AA210A128A11C9300A128A1516
:1001F80011220A128A110030F3000330F2000D3088
:10020800F1004030F0000A128A1537220A128A11CA
:1002180083120313C5010314C50D12290A128A1586
:1002280096210A128A1100300A128A15AA210A1286
:100238008A11AA300A128A1511220A128A11143058
:100248000A128A15AA210A128A11DC300A128A15A2
:1002580011220A128A1187290518332934293E29BF
:1002680002304502031C39293A294F290130C502B9
:100278004F294F298518412942294F290330450222
:100288000318472948294F290130B6003608C50701
:100298004F294F294F2908300A128A15AA210A1214
:1002A8008A116C29A2300A128A1511220A128A119F
:1002B800792992300A128A1511220A128A1179298B
:1002C8009A300A128A1511220A128A117929792973
:1002D800831203134508013A03195629033A0319EF
:1002E8005D29013A0319642979290030F3000030A7
:1002F800F2007530F1003030F0000A128A1537220A
:100308000A128A1187298312031305198C298D294A
:1003180030298E290030F3000030F2002730F10038
:100328001030F0000A128A1537220A128A119C2905
:1003380083120313051DA129A2299C29A329003092
:10034800F3000030F2002730F1001030F0000A12FC
:100358008A1537220A128A11C4290A128A11CF244F
:100368000A128A1112290A128A11D6210A128A112E
:1003780012290A128A1542250A128A1112291229EB
:10038800831203134508013A0319B129033A0319E3
:10039800B729013A0319BD291229122912290A126B
:1003A8008A11002814300A128A15AA210A128A1101
:1003B80001300A128A1511220A128A1183120313B4
:1003C800B20107303202031CEA29EB29ED29042A7D
:1003D800042A32083E3E8400003083138000A400C3
:1003E8003208373E8400240880000130A400240825
:1003F800B20707303202031C022A032AED29042A15
:100408008030A4002408BC000730A4002408B700EA
:100418008030A4002408B8008130A4002408B90062
:100428000B30A4002408BA001130A4002408BB0033
:100438001D2A0630A4002408F0000030F100003026
:10044800F20090300A128A1104200A128A112C2A0A
:10045800F0010314F00D0130F1000030F20090308B
:100468000A128A1104200A128A1183120313BE0881
:10047800031D3F2A402A2C2A412A0430A4002408BC
:10048800F0000130F1000030F20090300A128A11B9
:1004980004200A128A11831203133C08FF3A031935
:1004A800562A572A612A3F08031D5B2A812A0130F0
:1004B800A4002408BC07812A812A0A128A159621D9
:1004C8000A128A1100300A128A15AA210A128A1100
:1004D80012300A128A1511220A128A110030F3000A
:1004E8000330F2000D30F1004030F0000A128A1596
:1004F80037220A128A11CE2CCE2C83120313BF087E
:10050800031D872A882A1D2A892A0A128A159621F4
:100518000A128A1100300A128A15AA210A128A11AF
:10052800BE300A128A1511220A128A1114300A12D0
:100538008A15AA210A128A11B8300A128A151122BC
:100548000A128A11A52CA82AF0010314F00D013013
:10055800F1000030F20090300A128A1104200A12C9
:100568008A1183120313BE08031DBB2ABC2AA82ABA
:10057800BD2A0730A4002408F0000130F100003043
:10058800F20090300A128A1104200A128A1183128A
:1005980003133F08A400A501A601A7012708AC0082
:1005A8002608AB002508AA002408A9000830A400E2
:1005B8000310A90DAA0DAB0DAC0DA40BDC2A400845
:1005C800A400A501A601A7012408A907250803116D
:1005D8000318013E0319F12AAA0726080311031874
:1005E800013E0319F82AAB07270803110318013E37
:1005F8000319FF2AAC070830A4000310A90DAA0D9F
:10060800AB0DAC0DA40B012B4108A400A501A6015C
:10061800A7012408A907250803110318013E031997
:10062800162BAA07260803110318013E03191D2BD0
:10063800AB07270803110318013E0319242BAC0745
:100648002908A4002A08A5002B08A6002C08A70042
:100658000B300310A70CA60CA50CA40CFF3E031D21
:100668002D2B2508B401B4072408B301B3074208A9
:10067800A400A501A601A7012708B0002608AF001D
:100688002508AE002408AD000830A4000310AD0D05
:10069800AE0DAF0DB00DA40B4A2B4308A400A50165
:1006A800A601A7012408AD07250803110318013E78
:1006B80003195F2BAE07260803110318013E03191F
:1006C800662BAF07270803110318013E03196D2B8A
:1006D800B0070830A4000310AD0DAE0DAF0DB00D7E
:1006E800A40B6F2B4408A400A501A601A7012408A8
:1006F800AD07250803110318013E0319842BAE0723
:10070800260803110318013E03198B2BAF0727088E
:1007180003110318013E0319922BB0072D08A400FA
:100728002E08A5002F08A6003008A7000B300310DC
:10073800A70CA60CA50CA40CFF3E031D9B2B24089C
:10074800A8002808B10006300A128A15AA210A1240
:100758008A111F30831203133402FF300319330246
:10076800031CB72BB82BBF2B7F300A128A15112216
:100778000A128A114A2CE830F6000330F700831277
:1007880003133408F901F9073308F801F8070A12C6
:100798008A15AB220A128A117608303E0A128A1587
:1007A800C7210A128A112E300A128A15C7210A1285
:1007B8008A116430F6000030F700831203133408FE
:1007C800F301F3073308F201F207E830F0000330D1
:1007D800F1000A128A1567220A128A117108F901B2
:1007E800F9077008F801F8070A128A15AB220A12ED
:1007F8008A117608303E0A128A15C7210A128A1110
:100808000A30F6000030F700831203133408F301AE
:10081800F3073308F201F2076430F0000030F1000A
:100828000A128A1567220A128A117108F901F90752
:100838007008F801F8070A128A15AB220A128A1101
:100848007608303E0A128A15C7210A128A110A3020
:10085800F0000030F100831203133408F301F307AA
:100868003308F201F2070A128A1567220A128A115E
:100878007008303E0A128A15C7210A128A11C4303C
:100888000A128A1511220A128A114A2C1A300A12DF
:100898008A15AA210A128A110A30F7000030F800D6
:1008A800831203133108A400A5012408F2002508C7
:1008B800F3006430F0000030F1000A128A15F823C2
:1008C8000A128A117108FA01FA077008F901F90782
:1008D8000A128A15CC240A128A117708303E0A12A5
:1008E8008A15C7210A128A110A30F0000030F10077
:1008F800831203133108A400A5012408F200250877
:10090800F3000A128A15F8230A128A117008303E79
:100918000A128A15C7210A128A1143300A128A1547
:10092800C7210A128A110030F3000030F200273084
:10093800F1001030F0000A128A1537220A128A11C3
:10094800A52C831203130519AA2CAB2CA82AAC2CAE
:100958000030F3000030F2002730F1001030F000D2
:100968000A128A1537220A128A11BA2C8312031323
:10097800051DBF2CC02CBA2CC12C0030F300003050
:10098800F2002730F1001030F0000A128A153722E1
:100998000A128A11080083120313A4010314A40D78
:1009A8000A128A1596210A128A11DA2C14300A12B0
:1009B8008A15AA210A128A11DC300A128A15112214
:1009C8000A128A11831203130518EB2CEC2CF62C4F
:1009D80002302402031CF12CF22C072D0130A40252
:1009E800072D072D8518F92CFA2C072D0430240221
:1009F8000318FF2C002D072D0130A0002008A407A4
:100A0800072D072D072D00300A128A15AA210A1270
:100A18008A112B2D53300A128A1511220A128A11B3
:100A28003B2D33300A128A1511220A128A113B2DE6
:100A380043300A128A1511220A128A113B2D2330DB
:100A48000A128A1511220A128A113B2D3B2D831294
:100A580003132408013A03190E2D033A0319152D1F
:100A6800013A03191C2D073A0319232D3B2D831234
:100A780003130519402D412DF02F0030F3000030ED
:100A8800F2002730F1001030F0000A128A153722E0
:100A98000A128A114F2D83120313051D542D552D4B
:100AA8004F2D562D0030F3000030F2002730F100B2
:100AB8001030F0000A128A1537220A128A110A1217
:100AC8008A1596210A128A1100300A128A15AA215B
:100AD8000A128A11DF2F89300A128A1511220A1286
:100AE8008A1114300A128A15AA210A128A11D330DF
:100AF8000A128A1511220A128A114F30831203131F
:100B0800A0002008B700F0010314F00D0030F10038
:100B18000030F20042300A128A1104200A128A11A7
:100B28000030F3000030F2002730F1001030F00000
:100B38000A128A1537220A128A11872E4130831227
:100B48000313A0002008B700F0010314F00D0030D3
:100B5800F1000030F20042300A128A1104200A1211
:100B68008A110030F3000030F2002730F100103015
:100B7800F0000A128A1537220A128A1102308312EB
:100B88000313A0002008F0000130F1000030F2004B
:100B980042300A128A1104200A128A1109300A12F4
:100BA8008A15AA210A128A11831203133E08A0008B
:100BB800A1012008A100A0013F082007A2000030E1
:100BC800031801302107A300E830F6000330F700CE
:100BD8002308F301F3072208F201F2071030F000AE
:100BE8002730F1000A128A1567220A128A11710841
:100BF800F901F9077008F801F8070A128A15AB22FB
:100C08000A128A117608303E0A128A15C7210A127A
:100C18008A116430F6000030F700831203132308AA
:100C2800F301F3072208F201F207E830F00003307D
:100C3800F1000A128A1567220A128A117108F9014D
:100C4800F9077008F801F8070A128A15AB220A1288
:100C58008A117608303E0A128A15C7210A128A11AB
:100C68000A30F6000030F700831203132308F3015B
:100C7800F3072208F201F2076430F0000030F100B7
:100C88000A128A1567220A128A117108F901F907EE
:100C98007008F801F8070A128A15AB220A128A119D
:100CA8007608303E0A128A15C7210A128A112E3098
:100CB8000A128A15C7210A128A110A30F000003078
:100CC800F100831203132308F301F3072208F2014A
:100CD800F2070A128A1567220A128A117008303E32
:100CE8000A128A15C7210A128A110030F30000304F
:100CF800F2002730F1001030F0000A128A1537226E
:100D08000A128A11872E8312031305198C2E8D2E31
:100D1800A22D8E2E0030F3000030F2002730F100B3
:100D28001030F0000A128A1537220A128A119C2EF6
:100D380083120313051DA12EA22E9C2EA32E003074
:100D4800F3000030F2002730F1001030F0000A12F2
:100D58008A1537220A128A110A128A1596210A124E
:100D68008A11F02F0A128A1596210A128A11003068
:100D78000A128A15AA210A128A1163300A128A15E0
:100D880011220A128A1114300A128A15AA210A128B
:100D98008A11D3300A128A1511220A128A11433095
:100DA80083120313A0002008B700F0010314F00D0C
:100DB8000030F1000030F20042300A128A1104209B
:100DC8000A128A11E72E831203130519EC2EED2E51
:100DD800E72EEE2E0030F3000030F2002730F1004D
:100DE8001030F0000A128A1537220A128A11FC2ED6
:100DF80083120313051D012F022FFC2E032F003031
:100E0800F3000030F2002730F1001030F0000A1231
:100E18008A1537220A128A11453083120313A0005B
:100E28002008B700F0010314F00D0030F100003085
:100E3800F20042300A128A1104200A128A110A1298
:100E48008A1596210A128A1100300A128A15AA21D7
:100E58000A128A11CE300A128A1511220A128A1130
:100E68000030F3000330F2000D30F1004030F000A4
:100E78000A128A1537220A128A11F02F7730831244
:100E88000313A0002008B700B8010314B80DB90176
:100E98000330A0002008F0000030F1000030F2001C
:100EA80042300A128A1104200A128A110030F30013
:100EB8000030F2002730F1001030F0000A128A15D5
:100EC80037220A128A11023083120313A000200865
:100ED800B8000330A0002008F0000030F100003016
:100EE800F20042300A128A1104200A128A110030D4
:100EF800F3000030F2002730F1001030F0000A1241
:100F08008A1537220A128A11033083120313A000AC
:100F18002008B8000330A0002008F0000030F100DD
:100F28000030F20042300A128A1104200A128A1193
:100F38000030F3000030F2002730F1001030F000EC
:100F48000A128A1537220A128A11043083120313EF
:100F5800A0002008B8000330A0002008F0000030EE
:100F6800F1000030F20042300A128A1104200A12FD
:100F78008A110A128A1596210A128A1100300A1259
:100F88008A15AA210A128A11CE300A128A1511224C
:100F98000A128A110030F3000330F2000D30F1001C
:100FA8004030F0000A128A1537220A128A11F02FEF
:100FB800FF2FF02FF02F831203132408013A03198F
:100FC8006F2D033A0319B62E013A0319422F073A37
:100FD8000319FF2FF02FF02F0030F3000030F2003C
:100FE8007530F1003030F0000A128A1537220A12E3
:100FF8008A11DA2CDA2C080008308A000408840ADE
:1010080082070034433461346C3469346234723496
:101018006134743469346E3467342E342E342E348B
:10102800203420340034433461346C3469346234FD
:1010380072346134743469346F346E342034463415
:10104800613469346C340034453478346934743428
:101058003F342034203420342034203420342034C9
:101068002034203420340034433461346C346934FF
:10107800623472346134743469346F346E343F349A
:1010880020342034203400345234653473346534C9
:10109800743420344F3466346634733465347434AD
:1010A8003F342034203400344834653461346434A7
:1010B80069346E34673420344F3475347434703482
:1010C800753474343F340034433461346C346934D7
:1010D800623472346134743469346E3467342E3453
:1010E8002E342E34003443347934743472346F34EB
:1010F8006E34203454346534633468342E34003408
:1011080053346134743475347234613474346534EE
:1011180064340034483465346134643469346E347A
:1011280067343A340034413444343734373434344F
:10113800363420340034533443345034313430346A
:1011480030343034003448344D3443343634333456
:10115800353432340034533465346E3473346F3478
:1011680072343A3400345034723465342E343A349C
:101178000034543465346D342E343A3400344334F6
:10118800613470342E343A340034703446342034A8
:10119800203400345034523432343234003444343D
:1011A8006F346E34653400344534783469347434BB
:1011B80000346B345034613400344F344B340034D1
:1013020064008001840A0406031900340406822959
:1013120083133730840048300A128A1581210A1259
:101322008A1583010A128A11922801300A128A153B
:10133200EC210A128A150030F3000030F20002306C
:10134200F1005830F0000A128A1537220A128A1563
:101352000800FA0010307A020318B029B129B9291D
:101362007A08803E0A128A15EC210A128A15C629C9
:101372007A08EC3EF9007908FA007A08C03E0A12AF
:101382008A15EC210A128A15C6290800F800831270
:10139200031307147808860085160030F300003026
:1013A200F2000030F1000A30F0000A128A153722EA
:1013B2000A128A158312031385120030F3000030DB
:1013C200F2000030F1000A30F0000A128A153722CA
:1013D2000A128A150800F80083120313071078080E
:1013E200860085160030F3000030F2000030F10074
:1013F2003230F0000A128A1537220A128A15831235
:10140200031385120030F3000030F2000030F100C7
:101412003230F0000A128A1537220A128A150800A1
:10142200FA00242A7A0884000A128A1500200A1275
:101432008A150A128A15C7210A128A150130F90083
:101442007908FA07242A7A08031D282A362A7A08F4
:1014520084000A128A1500200A128A150038031D18
:10146200332A342A132A362A362A080073087204C9
:1014720071047004031D3E2A3F2A412A662A662A05
:101482000130F4000030F5000030F6000030F700C3
:101492007408F0027508031C750F502A512AF102D4
:1014A2007608031C760F562A572AF2027708031C85
:1014B200770F5C2A5D2AF3027308720471047004C8
:1014C200031D642A652A412A662A080071087004ED
:1014D20003196C2A6D2AA32AF5010314F50D7D2A3E
:1014E20001300310F00DF10DFF3E031D722A013091
:1014F200F4007408F5077D2AF11F802A812A712AD7
:10150200832A832A71087302031D892A70087202D2
:10151200031C8C2A8D2A942A7008F2027108031C7B
:10152200F303F302942A01300310F10CF00CFF3E96
:10153200031D952A0130F502031DA02AA12A832A40
:10154200A32AA32A7308F101F1077208F001F00738
:10155200AA2A0800FB01FC01770876040319B22AC3
:10156200B32AF12AFD010314FD0DC32A0130031031
:10157200F60DF70DFF3E031DB82A0130FA007A0876
:10158200FD07C32AF71FC62AC72AB72AC92AC92AAA
:1015920001300310FB0DFC0DFF3E031DCA2A770824
:1015A2007902031DD62A76087802031CD92ADA2A80
:1015B200E22A7608F8027708031CF903F9027B1481
:1015C200E22A01300310F70CF60CFF3E031DE32A5A
:1015D2000130FD02031DEE2AEF2AC92AF12AF12A5F
:1015E2007C08F701F7077B08F601F607F82A0800DE
:1015F20083120313A30085112308FC00013003109A
:10160200FC0DFF3E031D002B2208210400300319AC
:1016120001307C07FD007D070A128A154A230A124F
:101622008A158312031322082104031D192B1A2B76
:10163200212B20080A128A154A230A128A15462BE0
:1016420000300A128A154A230A128A15FC007C0805
:1016520083120313C6002308203A0319312B322BBD
:10166200392B2308213A031D372B382B462B392BD4
:1016720000300A128A154A230A128A15FC007C08D5
:1016820083120313C700462B462B831203138515BF
:101692000800F900FA01FB0108307B02031C522BFF
:1016A200532B552B992B992B8312031307130030BD
:1016B200F3000030F2000030F1006430F0000A1252
:1016C2008A1537220A128A15F91B682B6C2B831292
:1016D200031387176F2B8312031387130030871AA4
:1016E2000130F8007808FA070310F90D07307B0281
:1016F20003187C2B7D2B802B0310FA0D802B0717F0
:101702000030F3000030F2000030F1006430F000ED
:101712000A128A1537220A128A150130F80078084F
:10172200FB0708307B02031C972B982B552B992B18
:101732007A089B2B08007308720471047004031961
:10174200A32BA42BEE2BF9010314F90DB62B0130B8
:10175200F8000310F00DF10DF20DF30DF80BAA2BAA
:101762000130F8007808F907B62BF31FB92BBA2B12
:10177200A82BBC2BBC2B73087702031DCA2B720843
:101782007602031DCA2B71087502031DCA2B70084D
:101792007402031CCD2BCE2BDD2B7008F4027108D2
:1017A200031C710FF5027208031C720FF602730814
:1017B200031C730FF702DD2B01300310F30CF20C44
:1017C200F10CF00CFF3E031DDE2B0130F902031D6C
:1017D200EB2BEC2BBC2BEE2BEE2B7708F3007608D1
:1017E200F2007508F1007408F000F72B0800F6010A
:1017F200F31FFC2BFD2B062CF209F309F20A031945
:10180200F30AF6010314F60D062CF11F092C0A2C1B
:10181200102CF009F109F00A0319F10A102C7108D1
:1018220070040319152C162C4C2CF5010314F50D1C
:10183200262C01300310F00DF10DFF3E031D1B2C71
:101842000130F4007408F507262CF11F292C2A2CEC
:101852001A2C2C2C2C2C71087302031D322C7008AC
:101862007202031C352C362C3D2C7008F2027108D2
:10187200031CF303F3023D2C01300310F10CF00CB6
:10188200FF3E031D3E2C0130F502031D492C4A2C5C
:101892002C2C4C2C4C2C7608031D502C562CF20967
:1018A200F309F20A0319F30A562C7308F101F1073E
:1018B2007208F001F0075D2C08000030FC000030D7
:1018C200FB000030FA000030F90073087204710462
:1018D200700403196D2C6E2CC22CFD010314FD0D36
:1018E200802C0130F8000310F00DF10DF20DF30D14
:1018F200F80B742C0130F8007808FD07802CF31FD8
:10190200832C842C722C862C862C0130F800031038
:10191200F90DFA0DFB0DFC0DF80B882C73087702FC
:10192200031D9D2C72087602031D9D2C7108750201
:10193200031D9D2C70087402031CA02CA12CB12C39
:101942007008F4027108031C710FF5027208031C7F
:10195200720FF6027308031C730FF7027914B12C8D
:1019620001300310F30CF20CF10CF00CFF3E031DDE
:10197200B22C0130FD02031DBF2CC02C862CC22CC0
:10198200C22C7C08F3007B08F2007A08F100790887
:10199200F000CB2C080083120313A101F81FD22CF4
:1019A200D32CDC2CF709F809F70A0319F80AA1016C
:1019B2000314A10DDC2CFA1FDF2CE02CEA2CF90910
:1019C200FA09F90A0319FA0A0130FB007B08A10699
:1019D200EA2CA201A301780877040319F12CF22C56
:1019E200302DA0010314A00D022D01300310F70DBC
:1019F200F80DFF3E031DF72C0130FB007B08A0070A
:101A0200022DF81F052D062DF62C082D082D01306C
:101A12000310A20DA30DFF3E031D092D78087A02C3
:101A2200031D152D77087902031C182D192D212D60
:101A32007708F9027808031CFA03FA022214212D0E
:101A420001300310F80CF70CFF3E031D222D01306C
:101A5200A002031D2D2D2E2D082D302D302D2108F5
:101A6200031D342D3A2DA209A309A20A0319A30AC0
:101A72003A2D2308F801F8072208F701F707412D4C
:101A82000800093083120313A4002408A0000030C8
:101A9200A1000030A20003300A128A15F9220A12AC
:101AA2008A150A128A1596210A128A1500300A121C
:101AB2008A15AA210A128A15B2300A128A1511222F
:101AC2000A128A1514300A128A15AA210A128A15D4
:101AD200B8300A128A1511220A128A15CB2F712DDB
:101AE20083120313A0010130A1000030A2000730CD
:101AF2000A128A15F9220A128A1583120313C61EC4
:101B0200832D842D712D852DA0010130A10000307F
:101B1200A2001F300A128A15F9220A128A158312AC
:101B2200031346080739A400A501A601A701270847
:101B3200AD002608AC002508AB002408AA0010302E
:101B4200A4000310AA0DAB0DAC0DAD0DA40BA22D7C
:101B5200A0010130A1000030A20020300A128A1533
:101B6200F9220A128A15831203134708A4004608B1
:101B7200A5000030A51BFF30A600A7002408AA0775
:101B8200250803110318013E0319C82DAB072608C7
:101B920003110318013E0319CF2DAC0727080311C7
:101BA2000318013E0319D62DAD07A0010130A10093
:101BB2000030A20021300A128A15F9220A128A156F
:101BC200831203134608A400A5012408A500A4015A
:101BD20047082407A8000030031801302507A90090
:101BE20006300A128A15AA210A128A1583120313D1
:101BF2002A08A4002B08A5002C08A6002D08A7007F
:101C020002300310A70CA60CA50CA40CFF3E031D6A
:101C1200022E2708B1002608B0002508AF002408CC
:101C2200AE000030F3000030F2000330F100E83083
:101C3200F0003108F7003008F6002F08F5002E08F2
:101C4200F4000A128A155E240A128A157108831298
:101C52000313B301B3077008B201B2076430F60090
:101C62000030F7003308F301F3073208F201F207FC
:101C7200E830F0000330F1000A128A1567220A12D6
:101C82008A157108F901F9077008F801F8070A12B4
:101C92008A15AB220A128A157608303E0A128A1574
:101CA200C7210A128A150A30F6000030F7008312A3
:101CB20003133308F301F3073208F201F207643029
:101CC200F0000030F1000A128A1567220A128A1502
:101CD2007108F901F9077008F801F8070A128A1564
:101CE200AB220A128A157608303E0A128A15C721DB
:101CF2000A128A150A30F0000030F1008312031331
:101D02003308F301F3073208F201F2070A128A15C7
:101D120067220A128A157008303E0A128A15C721F4
:101D22000A128A152E300A128A15C7210A128A153A
:101D32000030F3000030F2000330F100E830F00030
:101D4200831203133108F7003008F6002F08F5005C
:101D52002E08F4000A128A159C230A128A157108A9
:101D620083120313B301B3077008B201B2076430E0
:101D7200F6000030F7003308F901F9073208F801DC
:101D8200F8070A128A15AB220A128A157608303E23
:101D92000A128A15C7210A128A150A30F600003083
:101DA200F700831203133308F301F3073208F20139
:101DB200F2076430F0000030F1000A128A1567223F
:101DC2000A128A157108F901F9077008F801F80773
:101DD2000A128A15AB220A128A157608303E0A12B6
:101DE2008A15C7210A128A150A30F0000030F10064
:101DF200831203133308F301F3073208F201F207E7
:101E02000A128A1567220A128A157008303E0A12CF
:101E12008A15C7210A128A15D8300A128A15112288
:101E22000A128A151A300A128A15AA210A128A156A
:101E3200831203132908A5002808A4000130031007
:101E4200A50CA40CFF3E031D202F2408B400250876
:101E5200B500351E2D2F2E2F3A2FB409B509B40A1D
:101E62000319B50A2D300A128A15C7210A128A15DA
:101E7200402F2B300A128A15C7210A128A15E83020
:101E8200F6000330F700831203133508F901F9074E
:101E92003408F801F8070A128A15AB220A128A15C9
:101EA2007608303E0A128A15C7210A128A15643052
:101EB200F6000030F700831203133508F301F3072D
:101EC2003408F201F207E830F0000330F1000A12A0
:101ED2008A1567220A128A157108F901F907700832
:101EE200F801F8070A128A15AB220A128A15760837
:101EF200303E0A128A15C7210A128A150A30F600E4
:101F02000030F700831203133508F301F307340896
:101F1200F201F2076430F0000030F1000A128A1573
:101F220067220A128A157108F901F9077008F80187
:101F3200F8070A128A15AB220A128A157608303E71
:101F42000A128A15C7210A128A152E300A128A1518
:101F5200C7210A128A150A30F0000030F1008312FC
:101F620003133508F301F3073408F201F2070A12EA
:101F72008A1567220A128A157008303E0A128A15DB
:101F8200C7210A128A1543300A128A15C7210A127A
:101F92008A15CB2F831203130519D02FD12F712D40
:101FA200D22F0030F3000030F2002730F100103061
:101FB200F0000A128A1537220A128A15E02F8312BC
:101FC2000313051DE52FE62FE02FE72FA0010030B8
:101FD200A1000030A20003300A128A15F9220A1267
:101FE2008A150030F3000030F2002730F100103083
:0E1FF200F0000A128A1537220A128A1508001A
:02400E00323F3F
:00000001FF
