:100000000A128A15432964008001840A0406031930
:100010000034040604280310003003180130831252
:100020000313A100F81F152816281F28F709F8093F
:10003000F70A0319F80AA1010314A10D1F28FA1FDA
:10004000222823282C28F909FA09F90A0319FA0A9F
:100050000130FB007B08A1060030A2000030A300A5
:10006000780877040319352836287428A00103146A
:10007000A00D462801300310F70DF80DFF3E031DBB
:100080003B280130FB007B08A0074628F81F4928C1
:100090004A283A284C284C2801300310A20DA30D01
:1000A000FF3E031D4D2878087A02031D5928770862
:1000B0007902031C5C285D2865287708F902780816
:1000C000031CFA03FA022214652801300310F80C0D
:1000D000F70CFF3E031D66280130A002031D7128A6
:1000E00072284C28742874282108031D78287E283B
:1000F000A209A309A20A0319A30A7E282308F8016A
:10010000F8072208F701F70785280800831603136C
:10011000860138308700173085008312031393015E
:10012000C0308316031394003830831203139400F5
:1001300083160313910132309300831203138C1141
:100140000717871785150630831603139F000130A4
:100150000A128A1581210A128A1102300A128A159E
:1001600081210A128A1106300A128A1581210A1287
:100170008A110C300A128A1581210A128A1138302C
:100180000A128A1581210A128A110C308312031374
:1001900097000C309D00FF3083160313920005304A
:1001A00083120313920032309B0095010A128A15C4
:1001B00050210A128A1100300A128A1564210A128B
:1001C0008A1172300A128A15CB210A128A11143050
:1001D0000A128A1564210A128A11C9300A128A1574
:1001E000CB210A128A110030F3000330F2000D30E7
:1001F000F1004030F0000A128A15F1210A128A112A
:1002000083120313C5010314C50D06290A128A15AA
:1002100050210A128A1100300A128A1564210A122A
:100220008A11AA300A128A15CB210A128A111430B7
:100230000A128A1564210A128A11DC300A128A1500
:10024000CB210A128A117B2905182729282932294E
:1002500002304502031C2D292E2943290130C502F5
:100260004329432985183529362943290330450276
:1002700003183B293C2943290130B6003608C5073D
:1002800043294329432908300A128A1564210A1296
:100290008A116029A2300A128A15CB210A128A110A
:1002A0006D2992300A128A15CB210A128A116D2902
:1002B0009A300A128A15CB210A128A116D296D29EA
:1002C000831203134508013A03194A29033A031913
:1002D0005129013A031958296D290030F3000030E3
:1002E000F2007530F1003030F0000A128A15F12169
:1002F0000A128A117B298312031305198029812987
:10030000242982290030F3000030F2002730F10068
:100310001030F0000A128A15F1210A128A11902970
:1003200083120313051D95299629902997290030DA
:10033000F3000030F2002730F1001030F0000A1214
:100340008A15F1210A128A11B8290A128A11C724C2
:100350000A128A1106290A128A11CA210A128A115E
:1003600006290A128A152A250A128A11062906293F
:10037000831203134508013A0319A529033A031907
:10038000AB29013A0319B1290629062906290A12BF
:100390008A11002814300A128A1564210A128A115F
:1003A00001300A128A15CB210A128A11031000307B
:1003B0000318013083120313B20007303202031C0A
:1003C000E229E329E529FC29FC2932083E3E840084
:1003D000003083138000A4003208373E84002408D4
:1003E00080000130A4002408B20707303202031C49
:1003F000FA29FB29E529FC298030A4002408BC0047
:100400000730A4002408B7008030A4002408B800F6
:100410008130A4002408B9000B30A4002408BA00DD
:100420001130A4002408BB00152A0630A4002408BB
:10043000F0000030F1000030F20090300A128A150E
:1004400094240A128A11242AF0010314F00D0130B9
:10045000F1000030F20090300A128A1594240A123A
:100460008A1183120313BE08031D372A382A242A4F
:10047000392A0430A4002408F0000130F1000030D3
:10048000F20090300A128A1594240A128A118312FB
:1004900003133C08FF3A03194E2A4F2A592A3F08F2
:1004A000031D532A792A0130A4002408BC07792AA5
:1004B000792A0A128A1550210A128A1100300A126A
:1004C0008A1564210A128A1112300A128A15CB2168
:1004D0000A128A110030F3000330F2000D30F100EF
:1004E0004030F0000A128A15F1210A128A11C62C36
:1004F000C62C83120313BF08031D7F2A802A152AE6
:10050000812A0A128A1550210A128A1100300A1211
:100510008A1564210A128A11BE300A128A15CB216B
:100520000A128A1114300A128A1564210A128A11D9
:10053000B8300A128A15CB210A128A119D2CA02AE2
:10054000F0010314F00D0130F1000030F2009030A2
:100550000A128A1594240A128A1183120313BE0800
:10056000031DB32AB42AA02AB52A0730A400240800
:10057000F0000130F1000030F20090300A128A15CC
:1005800094240A128A11831203133F08A400A501C0
:10059000A601A7012708AC002608AB002508AA0081
:1005A0002408A9000830A4000310A90DAA0DAB0D62
:1005B000AC0DA40BD42A4008A400A501A601A701F4
:1005C0002408A907250803110318013E0319E92A85
:1005D000AA07260803110318013E0319F02AAB07E6
:1005E000270803110318013E0319F72AAC07083046
:1005F000A4000310A90DAA0DAB0DAC0DA40BF92A94
:100600004108A400A501A601A7012408A9072508FF
:1006100003110318013E03190E2BAA072608031124
:100620000318013E0319152BAB0727080311031804
:10063000013E03191C2BAC072908A4002A08A500B9
:100640002B08A6002C08A7000B300310A70CA60C43
:10065000A50CA40CFF3E031D252B2508B401B407EF
:100660002408B301B3074208A400A501A601A7010D
:100670002708B0002608AF002508AE002408AD000A
:100680000830A4000310AD0DAE0DAF0DB00DA40BDE
:10069000422B4308A400A501A601A7012408AD0729
:1006A000250803110318013E0319572BAE0726082E
:1006B00003110318013E03195E2BAF07270803112E
:1006C0000318013E0319652BB0070830A40003107E
:1006D000AD0DAE0DAF0DB00DA40B672B4408A400FB
:1006E000A501A601A7012408AD07250803110318D9
:1006F000013E03197C2BAE07260803110318013EA7
:100700000319832BAF07270803110318013E0319B0
:100710008A2BB0072D08A4002E08A5002F08A600DC
:100720003008A7000B300310A70CA60CA50CA40CD6
:10073000FF3E031D932B2408A8002808B1000630B3
:100740000A128A1564210A128A111F3083120313B8
:100750003402FF3003193302031CAF2BB02BB72B2D
:100760007F300A128A15CB210A128A11422CE830F6
:10077000F6000330F700831203133408F901F90778
:100780003308F801F8070A128A1565220A128A113D
:100790007608303E0A128A15A6210A128A112E30D6
:1007A0000A128A15A6210A128A116430F600003056
:1007B000F700831203133408F301F3073308F2013F
:1007C000F207E830F0000330F1000A128A15212206
:1007D0000A128A117108F901F9077008F801F8077F
:1007E0000A128A1565220A128A117608303E0A1208
:1007F0008A15A6210A128A110A30F6000030F70085
:10080000831203133408F301F3073308F201F207EC
:100810006430F0000030F1000A128A1521220A1219
:100820008A117108F901F9077008F801F8070A122E
:100830008A1565220A128A117608303E0A128A1534
:10084000A6210A128A110A30F0000030F10083124A
:1008500003133408F301F3073308F201F2070A1215
:100860008A1521220A128A117008303E0A128A154E
:10087000A6210A128A11C4300A128A15CB210A1243
:100880008A11422C1A300A128A1564210A128A111E
:100890000A30F7000030F800831203133108A40077
:1008A000A5012408F2002508F3006430F0000030B0
:1008B000F1000A128A15BC230A128A117108FA0182
:1008C000FA077008F901F9070A128A110B200A12B7
:1008D0008A117708303E0A128A15A6210A128A1157
:1008E0000A30F0000030F100831203133108A40035
:1008F000A5012408F2002508F3000A128A15BC237A
:100900000A128A117008303E0A128A15A6210A12AC
:100910008A1143300A128A15A6210A128A11003060
:10092000F3000030F2002730F1001030F0000A121E
:100930008A15F1210A128A119D2C831203130519BD
:10094000A22CA32CA02AA42C0030F3000030F2002B
:100950002730F1001030F0000A128A15F1210A1236
:100960008A11B22C83120313051DB72CB82CB22C9C
:10097000B92C0030F3000030F2002730F1001030C5
:10098000F0000A128A15F1210A128A110800831256
:100990000313A4010314A40D0A128A1550210A128C
:1009A0008A11D22C14300A128A1564210A128A1173
:1009B000DC300A128A15CB210A128A118312031322
:1009C0000518E32CE42CEE2C02302402031CE92C45
:1009D000EA2CFF2C0130A402FF2CFF2C8518F12CEF
:1009E000F22CFF2C043024020318F72CF82CFF2CD7
:1009F0000130A0002008A407FF2CFF2CFF2C0030A2
:100A00000A128A1564210A128A11232D53300A1200
:100A10008A15CB210A128A11332D33300A128A1516
:100A2000CB210A128A11332D43300A128A15CB21A9
:100A30000A128A11332D23300A128A15CB210A1289
:100A40008A11332D332D831203132408013A03191D
:100A5000062D033A03190D2D013A0319142D073AF7
:100A600003191B2D332D831203130519382D392D2E
:100A7000F02F0030F3000030F2002730F10010308A
:100A8000F0000A128A15F1210A128A11472D8312E9
:100A90000313051D4C2D4D2D472D4E2D0030F30019
:100AA0000030F2002730F1001030F0000A128A15F1
:100AB000F1210A128A110A128A1550210A128A118A
:100AC00000300A128A1564210A128A11DF2F893038
:100AD0000A128A15CB210A128A1114300A128A15B9
:100AE00064210A128A11D3300A128A15CB210A1204
:100AF0008A114F3083120313A0002008B700F001C1
:100B00000314F00D0030F1000030F20042300A1200
:100B10008A1594240A128A110030F3000030F20082
:100B20002730F1001030F0000A128A15F1210A1264
:100B30008A11832E413083120313A0002008B700CE
:100B4000F0010314F00D0030F1000030F2004230EB
:100B50000A128A1594240A128A110030F300003018
:100B6000F2002730F1001030F0000A128A15F1214E
:100B70000A128A11023083120313A0002008F00029
:100B80000130F1000030F20042300A128A1594243C
:100B90000A128A1109300A128A1564210A128A116E
:100BA000831203133E08A000A1010830FF000310C8
:100BB000A00DA10DFF0BD72D3F082007A20000308C
:100BC000031801302107A300E830F6000330F700D6
:100BD0002308F301F3072208F201F2071030F000B6
:100BE0002730F1000A128A1521220A128A1171088F
:100BF000F901F9077008F801F8070A128A15652249
:100C00000A128A117608303E0A128A15A6210A12A3
:100C10008A116430F6000030F700831203132308B2
:100C2000F301F3072208F201F207E830F000033085
:100C3000F1000A128A1521220A128A117108F9019B
:100C4000F9077008F801F8070A128A1565220A12D6
:100C50008A117608303E0A128A15A6210A128A11D4
:100C60000A30F6000030F700831203132308F30163
:100C7000F3072208F201F2076430F0000030F100BF
:100C80000A128A1521220A128A117108F901F9073C
:100C90007008F801F8070A128A1565220A128A11EB
:100CA0007608303E0A128A15A6210A128A112E30C1
:100CB0000A128A15A6210A128A110A30F0000030A1
:100CC000F100831203132308F301F3072208F20152
:100CD000F2070A128A1521220A128A117008303E80
:100CE0000A128A15A6210A128A110030F300003078
:100CF000F2002730F1001030F0000A128A15F121BD
:100D00000A128A11832E831203130519882E892E45
:100D10009A2D8A2E0030F3000030F2002730F100C7
:100D20001030F0000A128A15F1210A128A11982E49
:100D300083120313051D9D2E9E2E982E9F2E00308C
:100D4000F3000030F2002730F1001030F0000A12FA
:100D50008A15F1210A128A110A128A1550210A12E3
:100D60008A11F02F0A128A1550210A128A110030B6
:100D70000A128A1564210A128A1163300A128A152E
:100D8000CB210A128A1114300A128A1564210A1220
:100D90008A11D3300A128A15CB210A128A114330E4
:100DA00083120313A0002008B700F0010314F00D14
:100DB0000030F1000030F20042300A128A1594240B
:100DC0000A128A11E32E831203130519E82EE92E65
:100DD000E32EEA2E0030F3000030F2002730F1005D
:100DE0001030F0000A128A15F1210A128A11F82E29
:100DF00083120313051DFD2EFE2EF82EFF2E00304C
:100E0000F3000030F2002730F1001030F0000A1239
:100E10008A15F1210A128A11453083120313A000AA
:100E20002008B700F0010314F00D0030F10000308D
:100E3000F20042300A128A1594240A128A110A1208
:100E40008A1550210A128A1100300A128A1564216B
:100E50000A128A11CE300A128A15CB210A128A117F
:100E60000030F3000330F2000D30F1004030F000AC
:100E70000A128A15F1210A128A11F02F7730831293
:100E80000313A0002008B700B8010314B80D031025
:100E9000003003180130B9000330A0002008F00032
:100EA0000030F1000030F20042300A128A1594241A
:100EB0000A128A110030F3000030F2002730F100EE
:100EC0001030F0000A128A15F1210A128A1102303C
:100ED00083120313A0002008B8000330A0002008EC
:100EE000F0000030F1000030F20042300A128A15A2
:100EF00094240A128A110030F3000030F2002730E7
:100F0000F1001030F0000A128A15F1210A128A113C
:100F1000033083120313A0002008B8000330A000A0
:100F20002008F0000030F1000030F20042300A12D8
:100F30008A1594240A128A110030F3000030F2005E
:100F40002730F1001030F0000A128A15F1210A1240
:100F50008A11043083120313A0002008B800033064
:100F6000A0002008F0000030F1000030F200423014
:100F70000A128A1594240A128A110A128A1550211B
:100F80000A128A1100300A128A1564210A128A1183
:100F9000CE300A128A15CB210A128A110030F300D2
:100FA0000330F2000D30F1004030F0000A128A15D3
:100FB000F1210A128A11F02FFF2FF02FF02F831248
:100FC00003132408013A0319672D033A0319B22EBB
:100FD000013A03193E2F073A0319FF2FF02FF02F84
:100FE0000030F3000030F2007530F1003030F000D6
:100FF0000A128A15F1210A128A11D22CD22C080069
:1010000008308A000408840A8207003443346134BB
:101010006C346934623472346134743469346E34DB
:1010200067342E342E342E342034203400344334AC
:1010300061346C34693462347234613474346934C8
:101040006F346E3420344634613469346C34003487
:1010500045347834693474343F34203420342034B7
:101060002034203420342034203420342034003400
:10107000433461346C3469346234723461347434AE
:1010800069346F346E343F342034203420340034DB
:101090005234653473346534743420344F346634D8
:1010A00066347334653474343F342034203400346F
:1010B000483465346134643469346E3467342034C0
:1010C0004F34753474347034753474343F340034B0
:1010D000433461346C34693462347234613474344E
:1010E00069346E3467342E342E342E340034433455
:1010F0007934743472346F346E342034543465343B
:10110000633468342E3400345334613474347534A9
:101110007234613474346534643400344834653472
:101120006134643469346E3467343A3400344134A1
:101130004434373437343434363420340034533480
:101140004334503431343034303430340034483463
:101150004D3443343634333435343234003453343C
:1011600065346E3473346F3472343A34003450342E
:10117000723465342E343A340034543465346D346A
:101180002E343A3400344334613470342E343A34DB
:101190000034703446342034203400345034523417
:1011A00032343234003444346F346E3465340034B5
:1011B000453478346934743400346B3450346134D9
:0811C00000344F344B340034BD
:1012860083133730840048300A128A1103200A1269
:101296008A1583010A128A11862801300A128A15D4
:1012A60081210A128A150030F3000030F200023064
:1012B600F1005830F0000A128A15F1210A128A1537
:1012C6000800FA0010307A0203186A296B2973297C
:1012D6007A08803E0A128A1581210A128A15802907
:1012E6007A08EC3EF9007908FA007A08C03E0A123C
:1012F6008A1581210A128A1580290800F8008312AE
:10130600031307107808860085160030F3000030B6
:10131600F2000030F1003230F0000A128A15F12195
:101326000A128A158312031385120030F300003067
:10133600F2000030F1003230F0000A128A15F12175
:101346000A128A150800F800831203130714780896
:10135600860085160030F3000030F2000030F10000
:101366000A30F0000A128A15F1210A128A15831230
:10137600031385120030F3000030F2000030F10054
:101386000A30F0000A128A15F1210A128A1508009D
:10139600FA00DE297A0884000A128A1500200A1249
:1013A6008A150A128A15A6210A128A150130F90031
:1013B6007908FA07DE297A08031DE229F0297A0856
:1013C60084000A128A1500200A128A150038031DA5
:1013D600ED29EE29CD29F029F029080073087204B9
:1013E60071047004031DF829F929FB29202A202AF3
:1013F6000130F4000030F5000030F6000030F70050
:101406007408F0027508031C750F0A2A0B2AF102EC
:101416007608031C760F102A112AF2027708031C9D
:10142600770F162A172AF3027308720471047004E0
:10143600031D1E2A1F2AFB29202A08007108700492
:101446000319262A272A5D2AF5010314F50D372AE2
:1014560001300310F00DF10DFF3E031D2C2A013063
:10146600F4007408F507372AF11F3A2A3B2A2B2A7B
:101476003D2A3D2A71087302031D432A7008720231
:10148600031C462A472A4E2A7008F2027108031CDA
:10149600F303F3024E2A01300310F10CF00CFF3E69
:1014A600031D4F2A0130F502031D5A2A5B2A3D2AE5
:1014B6005D2A5D2A7308F101F1077208F001F00751
:1014C600642A08000030FB000030FC007708760430
:1014D60003196E2A6F2AAD2AFD010314FD0D7F2A1A
:1014E60001300310F60DF70DFF3E031D742A01307F
:1014F600FA007A08FD077F2AF71F822A832A732AB1
:10150600852A852A01300310FB0DFC0DFF3E031DC5
:10151600862A77087902031D922A76087802031C28
:10152600952A962A9E2A7608F8027708031CF9035C
:10153600F9027B149E2A01300310F70CF60CFF3ECD
:10154600031D9F2A0130FD02031DAA2AAB2A852A04
:10155600AD2AAD2A7C08F701F7077B08F601F607E6
:10156600B42A080083120313A30085112308FC0084
:1015760001300310FC0DFF3E031DBC2A2208210486
:101586000030031901307C07FD007D070A128A1519
:1015960006230A128A158312031322082104031D47
:1015A600D52AD62ADD2A20080A128A1506230A1207
:1015B6008A15022B00300A128A1506230A128A158A
:1015C600FC007C0883120313C6002308203A031983
:1015D600ED2AEE2AF52A2308213A031DF32AF42AD6
:1015E600022BF52A00300A128A1506230A128A15DA
:1015F600FC007C0883120313C700022B022B831204
:10160600031385150800F900031000300318013094
:10161600FA000310003003180130FB0008307B028B
:10162600031C162B172B192B5D2B5D2B8312031313
:1016360007130030F3000030F2000030F100643090
:10164600F0000A128A15F1210A128A15F91B2C2BB1
:10165600302B831203138717332B8312031387133D
:101666000030871A0130F8007808FA070310F90DE0
:1016760007307B020318402B412B442B0310FA0D35
:10168600442B07170030F3000030F2000030F10061
:101696006430F0000A128A15F1210A128A15013007
:1016A600F8007808FB0708307B02031C5B2B5C2BD9
:1016B600192B5D2B7A085F2B0800730872047104DE
:1016C60070040319672B682BB22BF9010314F90D6B
:1016D6007A2B0130F8000310F00DF10DF20DF30D29
:1016E600F80B6E2B0130F8007808F9077A2BF31FF8
:1016F6007D2B7E2B6C2B802B802B73087702031D92
:101706008E2B72087602031D8E2B71087502031D3F
:101716008E2B70087402031C912B922BA12B700840
:10172600F4027108031C710FF5027208031C720F94
:10173600F6027308031C730FF702A12B0130031086
:10174600F30CF20CF10CF00CFF3E031DA22B013042
:10175600F902031DAF2BB02B802BB22BB22B7708CF
:10176600F3007608F2007508F1007408F000BB2B50
:1017760008000310003003180130F600F31FC42BD5
:10178600C52BCE2BF209F309F20A0319F30AF60167
:101796000314F60DCE2BF11FD12BD22BD82BF0092B
:1017A600F109F00A0319F10AD82B7108700403191C
:1017B600DD2BDE2B142CF5010314F50DEE2B013079
:1017C6000310F00DF10DFF3E031DE32B0130F40075
:1017D6007408F507EE2BF11FF12BF22BE22BF42BFD
:1017E600F42B71087302031DFA2B70087202031C96
:1017F600FD2BFE2B052C7008F2027108031CF30367
:10180600F302052C01300310F10CF00CFF3E031D12
:10181600062C0130F502031D112C122CF42B142C6E
:10182600142C7608031D182C1E2CF209F309F20A53
:101836000319F30A1E2C7308F101F1077208F0016F
:10184600F007252C08000030FC000030FB000030BB
:10185600FA000030F9007308720471047004031969
:10186600352C362C8A2CFD010314FD0D482C013035
:10187600F8000310F00DF10DF20DF30DF80B3C2CF2
:101886000130F8007808FD07482CF31F4B2C4C2C30
:101896003A2C4E2C4E2C0130F8000310F90DFA0D9F
:1018A600FB0DFC0DF80B502C73087702031D652CFD
:1018B60072087602031D652C71087502031D652CDE
:1018C60070087402031C682C692C792C7008F402C9
:1018D6007108031C710FF5027208031C720FF602E1
:1018E6007308031C730FF7027914792C0130031067
:1018F600F30CF20CF10CF00CFF3E031D7A2C0130B8
:10190600FD02031D872C882C4E2C8A2C8A2C7C08E1
:10191600F3007B08F2007A08F1007908F000932CB6
:101926000800F500831603131114992C83128C1DDD
:101936009D2C9E2C992C8C11710875079300A32C55
:101946008C1DA62CA72CA32C8C1172087104031DC8
:10195600AD2CAE2CD62C0310003003180130F60047
:10196600C52C7608373E8400831300089300BB2CF1
:101976008C1DBE2CBF2CBB2C8C110130F3007308C0
:10198600F607C52C70087602031CCA2CCB2CB42C87
:10199600831603131115CF2C83128C1DD32CD42C34
:1019A600CF2C8C11292D013071067204031DDC2CFD
:1019B600DD2C292D0310003003180130F600172DF9
:1019C600831603139115E72C83128C1DEB2CEC2C3C
:1019D600E72C8C111308F30076083E3E840073084A
:1019E600831380007008FF3EF300FF3003180030B9
:1019F600F400760873067404031D022D032D072DCB
:101A06008316031391160A2D8316031391121116CA
:101A16000C2D83128C1D102D112D0C2D8C110130C7
:101A2600F3007308F607172D70087602031C1C2DA9
:101A36001D2DE32C831603131115212D83128C1DE6
:101A4600252D262D212D8C11292D292D0800093013
:101A560083120313A4002408A0000030A100003064
:101A6600A20003300A128A15B5220A128A150A1232
:101A76008A1550210A128A1500300A128A15642125
:101A86000A128A15B2300A128A15CB210A128A1551
:101A960014300A128A1564210A128A15B8300A12FD
:101AA6008A15CB210A128A15C72F592D031000302B
:101AB6000318013083120313A0000130A100003087
:101AC600A20007300A128A15B5220A128A15831255
:101AD6000313C61E6F2D702D592D712D0310003066
:101AE60003180130A0000130A1000030A2001F3011
:101AF6000A128A15B5220A128A158312031346089A
:101B06000739A400A501A601A7012708AD002608EC
:101B1600AC002508AB002408AA001030A40003106E
:101B2600AA0DAB0DAC0DAD0DA40B922D031000301C
:101B360003180130A0000130A1000030A2002030BF
:101B46000A128A15B5220A128A1583120313470848
:101B5600A4004608A5000030A51BFF30A600A7007C
:101B66002408AA07250803110318013E0319BC2DF2
:101B7600AB07260803110318013E0319C32DAC0752
:101B8600270803110318013E0319CA2DAD070310D8
:101B9600003003180130A0000130A1000030A2007F
:101BA60021300A128A15B5220A128A1583120313E6
:101BB6004608A400A5010830FF000310A40DA50DDA
:101BC600FF0BE02D47082407A8000030031801305A
:101BD6002507A90006300A128A1564210A128A15F9
:101BE600831203132A08A4002B08A5002C08A600BC
:101BF6002D08A70002300310A70CA60CA50CA40CF8
:101C0600FF3E031DFE2D2708B1002608B00025085B
:101C1600AF002408AE000030F3000030F2000330BD
:101C2600F100E830F0003108F7003008F6002F0820
:101C3600F5002E08F4000A128A1526240A128A15BF
:101C4600710883120313B301B3077008B201B20718
:101C56006430F6000030F7003308F301F30732086A
:101C6600F201F207E830F0000330F1000A128A159B
:101C760021220A128A157108F901F9077008F8017C
:101C8600F8070A128A1565220A128A157608303E66
:101C96000A128A15A6210A128A150A30F6000030A1
:101CA600F700831203133308F301F3073208F20136
:101CB600F2076430F0000030F1000A128A15212282
:101CC6000A128A157108F901F9077008F801F80770
:101CD6000A128A1565220A128A157608303E0A12F9
:101CE6008A15A6210A128A150A30F0000030F10082
:101CF600831203133308F301F3073208F201F207E4
:101D06000A128A1521220A128A157008303E0A1212
:101D16008A15A6210A128A152E300A128A15A621BC
:101D26000A128A150030F3000030F2000330F10089
:101D3600E830F000831203133108F7003008F6008C
:101D46002F08F5002E08F4000A128A1560230A12DD
:101D56008A15710883120313B301B3077008B20121
:101D6600B2076430F6000030F7003308F901F907CE
:101D76003208F801F8070A128A1565220A128A152E
:101D86007608303E0A128A15A6210A128A150A30EA
:101D9600F6000030F700831203133308F301F3074C
:101DA6003208F201F2076430F0000030F1000A1246
:101DB6008A1521220A128A157108F901F907700895
:101DC600F801F8070A128A1565220A128A1576089A
:101DD600303E0A128A15A6210A128A150A30F00028
:101DE6000030F100831203133308F301F3073208BE
:101DF600F201F2070A128A1521220A128A157008C0
:101E0600303E0A128A15A6210A128A15D8300A12FD
:101E16008A15CB210A128A151A300A128A156421EC
:101E26000A128A15831203132908A5002808A4009C
:101E360001300310A50CA40CFF3E031D1C2F240823
:101E4600B4002508B500351E292F2A2F362FB409D0
:101E5600B509B40A0319B50A2D300A128A15A62146
:101E66000A128A153C2F2B300A128A15A6210A124D
:101E76008A15E830F6000330F7008312031335089D
:101E8600F901F9073408F801F8070A128A156522DC
:101E96000A128A157608303E0A128A15A6210A12F7
:101EA6008A156430F6000030F700831203133508F4
:101EB600F301F3073408F201F207E830F0000330CB
:101EC600F1000A128A1521220A128A157108F901EF
:101ED600F9077008F801F8070A128A1565220A122E
:101EE6008A157608303E0A128A15A6210A128A1524
:101EF6000A30F6000030F700831203133508F301A9
:101F0600F3073408F201F2076430F0000030F10004
:101F16000A128A1521220A128A157108F901F9078F
:101F26007008F801F8070A128A1565220A128A153E
:101F36007608303E0A128A15A6210A128A152E3014
:101F46000A128A15A6210A128A150A30F0000030F4
:101F5600F100831203133508F301F3073408F20185
:101F6600F2070A128A1521220A128A157008303ED3
:101F76000A128A15A6210A128A1543300A128A15F0
:101F8600A6210A128A15C72F831203130519CC2F0F
:101F9600CD2F592DCE2F0030F3000030F200273020
:101FA600F1001030F0000A128A15F1210A128A1582
:101FB600DC2F83120313051DE12FE22FDC2FE32F05
:101FC6000310003003180130A0000030A1000030DB
:101FD600A20003300A128A15B5220A128A150030A9
:101FE600F3000030F2002730F1001030F0000A1242
:0A1FF6008A15F1210A128A1508006D
:02400E00323F3F
:00000001FF
