:100000000A128A11F52F00308A000408840A820738
:100010000034433461346C34693462347234613492
:10002000743469346E3467342E342E342E342034D4
:1000300020340034433461346C34693462347234B3
:100040006134743469346F346E342034463461342E
:1000500069346C34003445347834693474343F3452
:1000600020342034203420342034203420342034F0
:10007000203420340034433461346C3469346234C5
:1000800072346134743469346F346E343F342034E4
:10009000203420340034523465347334653474347D
:1000A00020344F34663466347334653474343F34EA
:1000B0002034203400344834653461346434693485
:1000C0006E34673420344F3475347434703475347E
:1000D00074343F340034433461346C3469346234F2
:1000E00072346134743469346E3467342E342E348F
:1000F0002E34003443347934743472346F346E34B3
:10010000203454346534633468342E34003453342A
:1001100061347434753472346134743465346434E5
:100120000034483465346134643469346E3467347F
:100130003A34003441344434373437343434363488
:100140002034003453344334503431343034303478
:100150003034003448344D34433436343334353459
:1001600032340034533465346E3473346F34723443
:100170003A3400345034723465342E343A34003416
:10018000543465346D342E343A340034433461349D
:1001900070342E343A3400347034463420342034F1
:1001A00000345034523432343234003444346F34F6
:1001B0006E34653400344534783469347434003432
:0E01C0006B345034613400344F344B3400340F
:1001D20083120313A101F81FF528F709F809F70A9A
:1001E2000319F80AA101A10AFA1F0029F909FA095B
:1001F200F90A0319FA0A0130FB007B08A106A201E1
:10020200A3017708780403193729A001A00AF81B73
:10021200162901300310F70DF80DFF3E031D0B29BF
:100222000130FB007B08A007082901300310A20D52
:10023200A30DFF3E031D172978087A02031D232907
:1002420077087902031C2C297708F9027808031C25
:10025200FA03FA02221401300310F80CF70CFF3EE5
:10026200031D2D290130A002031D1629210803199F
:100272003F29A209A309A20A0319A30A2308F80025
:100282002208F7000800831603138601383087001E
:1002920017308500831203139301C03083160313B2
:1002A20094003830831203139400831603139101D0
:1002B20032309300831203138C11071787178515A9
:1002C2000630831603139F0001300A128A15E122B9
:1002D2000A128A1102300A128A15E1220A128A11BE
:1002E20006300A128A15E1220A128A110C300A1209
:1002F2008A15E1220A128A1138300A128A15E1227D
:100302000A128A110C308312031397000C309D00DD
:10031200FF308316031392000530831203139200F9
:1003220032309B0095010A128A1577220A128A112D
:1003320000300A128A1589220A128A1172300A12B0
:100342008A159F220A128A1114300A128A158922EA
:100352000A128A11C9300A128A159F220A128A11B8
:100362000030F3000330F2000D30F1004030F000B5
:100372000A128A15BE220A128A1183120313C501B8
:10038200C50A0A128A1577220A128A1100300A1245
:100392008A1589220A128A11AA300A128A159F2204
:1003A2000A128A1114300A128A1589220A128A1133
:1003B200DC300A128A159F220A128A118312031351
:1003C200051D2D2A0518EC2902304502031CF629C9
:1003D2000130C502F6298518F629033045020318B3
:1003E200F6290130B6003608C50708300A128A1508
:1003F20089220A128A11122AA2300A128A159F220F
:100402000A128A111F2A92300A128A159F220A1290
:100412008A111F2A9A300A128A159F220A128A11F9
:100422001F2A831203134508013A0319FD29033ACF
:100432000319042A013A03190B2A1F2A0030F30078
:100442000030F2007530F1003030F0000A128A15E7
:10045200BE220A128A11DF290030F3000030F200B6
:100462002730F1001030F0000A128A15BE220A125B
:100472008A1183120313051D3A2A0030F30000305B
:10048200F2002730F1001030F0000A128A15BE2265
:100492000A128A115E2A0A128A1116250A128A1172
:1004A200C2290A128A116C220A128A11C2290A125C
:1004B2008A1582250A128A11C2298312031345085A
:1004C200013A03194C2A033A0319522A013A031931
:1004D200582AC229C22914300A128A1589220A12FC
:1004E2008A1101300A128A159F220A128A11831276
:1004F2000313B201073032020318902A32083E3E3B
:100502008400831380013208373E84008001013069
:10051200A4002408B20707303202031C7F2A80306D
:10052200A4002408BC000730A4002408B7008030CF
:10053200A4002408B8008130A4002408B9000B30BC
:10054200A4002408BA001130A4002408BB0006301D
:10055200A4002408F0000030F100F20090300A12EA
:100562008A1518250A128A11F001F00A0130F100E9
:100572000030F20090300A128A1518250A128A11E8
:10058200831203133E08031DB52A0430A400240875
:10059200F0000130F1000030F20090300A128A15AA
:1005A20018250A128A11831203133C0A0319E12A3D
:1005B2003F080319FE2A0130A4002408BC07FE2AC2
:1005C2000A128A1577220A128A1100300A128A1533
:1005D20089220A128A1112300A128A159F220A12DD
:1005E2008A110030F3000330F2000D30F100403088
:1005F200F0000A128A15BE220800831203133F0874
:10060200031DA82A0A128A1577220A128A110030BB
:100612000A128A1589220A128A11BE300A128A1512
:100622009F220A128A1114300A128A1589220A128A
:100632008A11B8300A128A159F220A128A1183126D
:100642000313051DF92CF001F00A0130F10000300E
:10065200F20090300A128A1518250A128A118312A2
:1006620003133E08031D242B0730A4002408F000C6
:100672000130F1000030F20090300A128A1518257C
:100682000A128A11831203133F08A400A501A601CE
:10069200A7012708AC002608AB002508AA002408F9
:1006A200A9000830A4000310A90DAA0DAB0DAC0DD2
:1006B200A40B542B4008A400A501A601A7012408FD
:1006C200A907250803110318013E031DAA072608DE
:1006D20003110318013E031DAB072708031103187A
:1006E200013E031DAC070830A4000310A90DAA0D9A
:1006F200AB0DAC0DA40B762B4108A400A501A601FD
:10070200A7012408A907250803110318013E031DA8
:10071200AA07260803110318013E031DAB07270889
:1007220003110318013E031DAC072908A4002A087F
:10073200A5002B08A6002C08A7000B300310A70C5D
:10074200A60CA50CA40CFF3E031D9F2B2508B4008C
:100752002408B3004208A400A501A601A7012708A6
:10076200B0002608AF002508AE002408AD0008300E
:10077200A4000310AD0DAE0DAF0DB00DA40BBA2B3E
:100782004308A400A501A601A7012408AD07250876
:1007920003110318013E031DAE07260803110318B7
:1007A200013E031DAF07270803110318013E031D75
:1007B200B0070830A4000310AD0DAE0DAF0DB00DA3
:1007C200A40BDC2B4408A400A501A601A701240860
:1007D200AD07250803110318013E031DAE072608C5
:1007E20003110318013E031DAF0727080311031865
:1007F200013E031DB0072D08A4002E08A5002F08F6
:10080200A6003008A7000B300310A70CA60CA50CFD
:10081200A40CFF3E031D052C2408A8002808B100E3
:1008220006300A128A1589220A128A111F3083128F
:1008320003133402FF3003193302031C222C7F30CE
:100842009B2CE830F6000330F700831203133408C0
:10085200F9003308F8000A128A1559230A128A117C
:100862007608303E0A128A1504230A128A112E30A3
:100872000A128A1504230A128A116430F600003023
:10088200F700831203133408F3003308F200E83050
:10089200F0000330F1000A128A1527230A128A1186
:1008A2007108F9007008F8000A128A1559230A1211
:1008B2008A117608303E0A128A1504230A128A1116
:1008C2000A30F6000030F700831203133408F300F5
:1008D2003308F2006430F0000030F1000A128A1589
:1008E20027230A128A117108F9007008F8000A1207
:1008F2008A1559230A128A117608303E0A128A157D
:1009020004230A128A110A30F0000030F100831227
:1009120003133408F3003308F2000A128A1527235E
:100922000A128A117008303E0A128A1504230A122A
:100932008A11C4300A128A159F220A128A111A30A9
:100942000A128A1589220A128A110A30F700003027
:10095200F800831203133108A400A5012408F20051
:100962002508F3006430F0000030F1000A128A1505
:1009720023240A128A117108FA007008F9000A1277
:100982008A11E9200A128A117708303E0A128A1562
:1009920004230A128A110A30F0000030F100831297
:1009A20003133108A400A5012408F2002508F3006E
:1009B2000A128A1523240A128A117008303E0A127A
:1009C2008A1504230A128A1143300A128A15042353
:1009D2000A128A110030F3000030F2002730F100D1
:1009E2001030F0000A128A15BE220A128A11202B38
:1009F2000030F3000030F2002730F1001030F00038
:100A02000A128A15BE220A128A1183120313051DC5
:100A1200062D0030F3000030F2002730F1001030D4
:100A2200F0000A128A15BE22080083120313A401E1
:100A3200A40A0A128A1577220A128A1114300A129B
:100A42008A1589220A128A11DC300A128A159F221B
:100A52000A128A11831203130518362D023024025A
:100A6200031C402D0130A402402D8518402D043076
:100A720024020318402D0130A0002008A4070030F2
:100A82000A128A1589220A128A11632D53300A1218
:100A92008A159F220A128A11732D33300A128A157F
:100AA2009F220A128A11732D43300A128A159F223D
:100AB2000A128A11732D23300A128A159F220A12F2
:100AC2008A11732D831203132408013A0319472D47
:100AD200033A03194E2D013A0319552D073A03190A
:100AE2005C2D732D831203130519E62F0030F300DA
:100AF2000030F2002730F1001030F0000A128A159F
:100B0200BE220A128A1183120313051D842D00309E
:100B1200F3000030F2002730F1001030F0000A122A
:100B22008A15BE220A128A110A128A1577220A121D
:100B32008A1100300A128A1589220A128A11D62FC6
:100B420089300A128A159F220A128A1114300A1257
:100B52008A1589220A128A11D3300A128A159F2213
:100B62000A128A114F3083120313A0002008B70023
:100B7200F001F00A0030F100F20042300A128A1548
:100B820018250A128A110030F3000030F2002730D3
:100B9200F1001030F0000A128A15BE220A128A11E0
:100BA20083120313051D9D2E413083120313A000EF
:100BB2002008B700F001F00A0030F100F2004230E4
:100BC2000A128A1518250A128A110030F300003021
:100BD200F2002730F1001030F0000A128A15BE220E
:100BE2000A128A11023083120313A0002008F000B7
:100BF2000130F1000030F20042300A128A15182545
:100C02000A128A1109300A128A1589220A128A11D5
:100C1200831203133E08A000A1012008A100A00135
:100C22003F082007A2000030031801302107A3006B
:100C3200E830F6000330F7002308F3002208F20040
:100C42001030F0002730F1000A128A1527230A1209
:100C52008A117108F9007008F8000A128A155923DE
:100C62000A128A117608303E0A128A1504230A12E1
:100C72008A116430F6000030F70083120313230850
:100C8200F3002208F200E830F0000330F1000A120B
:100C92008A1527230A128A117108F9007008F800D0
:100CA2000A128A1559230A128A117608303E0A124C
:100CB2008A1504230A128A110A30F6000030F7005E
:100CC200831203132308F3002208F2006430F000B9
:100CD2000030F1000A128A1527230A128A117108BC
:100CE200F9007008F8000A128A1559230A128A11AB
:100CF2007608303E0A128A1504230A128A112E300F
:100D02000A128A1504230A128A110A30F0000030EE
:100D1200F100831203132308F3002208F2000A12DF
:100D22008A1527230A128A117008303E0A128A1580
:100D320004230A128A11C42D0030F3000030F2009D
:100D42002730F1001030F0000A128A15BE220A1272
:100D52008A1183120313051DAA2E0030F3000030FE
:100D6200F2002730F1001030F0000A128A15BE227C
:100D72000A128A110A128A1577220A128A11E62F9A
:100D82000A128A1577220A128A1100300A128A156B
:100D920089220A128A1163300A128A159F220A12C4
:100DA2008A1114300A128A1589220A128A11D33042
:100DB2000A128A159F220A128A11433083120313E0
:100DC200A0002008B700F001F00A0030F100F200A4
:100DD20042300A128A1518250A128A118312031345
:100DE2000519EF2E0030F3000030F2002730F10039
:100DF2001030F0000A128A15BE220A128A118312DA
:100E02000313051D002F0030F3000030F2002730DD
:100E1200F1001030F0000A128A15BE220A128A115D
:100E2200453083120313A0002008B700F001F00A36
:100E32000030F100F20042300A128A1518250A1217
:100E42008A110A128A1577220A128A1100300A12AE
:100E52008A1589220A128A11CE300A128A159F2215
:100E62000A128A110030F3000330F2000D30F10053
:100E72004030F0000A128A15BE220A128A11E62FA9
:100E8200773083120313A0002008B700B801B80A14
:100E9200B9010330A0002008F0000030F100F20098
:100EA20042300A128A1518250A128A110030F300FC
:100EB2000030F2002730F1001030F0000A128A15DB
:100EC200BE220A128A11023083120313A0002008E4
:100ED200B8000330A0002008F0000030F100F2005A
:100EE20042300A128A1518250A128A110030F300BC
:100EF2000030F2002730F1001030F0000A128A159B
:100F0200BE220A128A11033083120313A0002008A2
:100F1200B8000330A0002008F0000030F100F20019
:100F220042300A128A1518250A128A110030F3007B
:100F32000030F2002730F1001030F0000A128A155A
:100F4200BE220A128A11043083120313A000200861
:100F5200B8000330A0002008F0000030F100F200D9
:100F620042300A128A1518250A128A110A128A15A3
:100F720077220A128A1100300A128A1589220A126D
:100F82008A11CE300A128A159F220A128A11003063
:100F9200F3000330F2000D30F1004030F0000A128D
:100FA2008A15BE220A128A11E62F8312031324081D
:100FB200013A0319A12D033A0319C12E013A03196B
:100FC200412F073A0319F42FE62F0030F3000030C7
:100FD200F2007530F1003030F0000A128A15BE229C
:100FE2000A128A111F2D08008313373084004830FB
:0E0FF2000A128A156F2283010A128A114429FD
:1014DE0064008001840A0406031900340406702A8D
:1014EE0001300A128A15E1220A128A150030F30021
:1014FE000030F2000230F1005830F0000A128A1566
:10150E00BE220800FA0010307A020318942A7A08D4
:10151E00803E0A128A15E12208007A08EC3EF90094
:10152E007908FA007A08C03E0A128A15E1220800EC
:10153E00FA007A08031908007A0884000A128A1140
:10154E0003200A128A15003A031908007A0884004B
:10155E000A128A1103200A128A150A128A15042306
:10156E000A128A150130F9007908FA07A02A7308C1
:10157E00720471047004031908000130F400003085
:10158E00F5000030F6000030F7007408F002750820
:10159E00031C750FD32AD42AF1027608031C760F8A
:1015AE00D92ADA2AF2027708031C770FDF2ABE2A1D
:1015BE00F302BE2AF8008312031307107808860080
:1015CE0085160030F3000030F2000030F1003230AA
:1015DE00F0000A128A15BE220A128A15831203130C
:1015EE0085120030F3000030F2000030F10032308E
:1015FE00F0000A128A15BE220800F80083120313A7
:10160E0007147808860085160030F3000030F200CB
:10161E000030F1000A30F0000A128A15BE220A12BA
:10162E008A158312031385120030F3000030F20086
:10163E000030F1000A30F0000A128A15BE220800AE
:10164E00700871040319542BF501F50AF11B3B2B9D
:10165E0001300310F00DF10DFF3E031D302B013054
:10166E00F4007408F5072D2B71087302031D412B2E
:10167E0070087202031C492B7008F2027108031CD9
:10168E00F303F30201300310F10CF00CFF3E031DC7
:10169E004A2B0130F502031D3B2B7308F100720833
:1016AE00F0000800FB01FC01760877040319902B6B
:1016BE00FD01FD0AF71B6F2B01300310F60DF70D20
:1016CE00FF3E031D642B0130FA007A08FD07612BE3
:1016DE0001300310FB0DFC0DFF3E031D702B770830
:1016EE007902031D7C2B76087802031C852B760865
:1016FE00F8027708031CF903F9027B14013003107A
:10170E00F70CF60CFF3E031D862B0130FD02031D68
:10171E006F2B7C08F7007B08F6000800F900FA0131
:10172E00FB0108307B020318D92B83120313071316
:10173E000030F3000030F2000030F1006430F000B1
:10174E000A128A15BE220A128A15F91FB22B8312AB
:10175E0003138717B52B8312031387130030871AD1
:10176E000130F8007808FA070310F90D07307B02F4
:10177E000318C32B0310FA0D07170030F3000030C7
:10178E00F2000030F1006430F0000A128A15BE2219
:10179E000A128A150130F8007808FB0708307B0220
:1017AE00031C9C2B7A08080083120313A3008511D7
:1017BE002308FC0001300310FC0DFF3E031DE22B3D
:1017CE0021082204031DED2B0130EE2B00307C0787
:1017DE00FD007D070A128A1595230A128A158312B7
:1017EE00031321082204031D032C20080A128A1554
:1017FE0095230A128A151F2C00300A128A1595237A
:10180E000A128A15FC007C0883120313C6002030CE
:10181E0023060319162C21302306031D1F2C00301E
:10182E000A128A159523FC007C0883120313C70045
:10183E008312031385150800F601F31F2D2CF209F0
:10184E00F309F20A0319F30AF601F60AF11F342C12
:10185E00F009F109F00A0319F10A7008710403196D
:10186E00612CF501F50AF11B482C01300310F00D27
:10187E00F10DFF3E031D3D2C0130F4007408F507F9
:10188E003A2C71087302031D4E2C70087202031C51
:10189E00562C7008F2027108031CF303F302013098
:1018AE000310F10CF00CFF3E031D572C0130F50216
:1018BE00031D482C76080319692CF209F309F20A64
:1018CE000319F30A7308F1007208F0000800730898
:1018DE007204710470040319B12CF901F90AF31B97
:1018EE00862C0130F8000310F00DF10DF20DF30D02
:1018FE00F80B7A2C0130F8007808F907762C73086B
:10190E007702031D942C72087602031D942C710825
:10191E007502031D942C70087402031CA42C70080D
:10192E00F4027108031C710FF5027208031C720F8A
:10193E00F6027308031C730FF70201300310F30C49
:10194E00F20CF10CF00CFF3E031DA52C0130F90238
:10195E00031D862C7708F3007608F2007508F10057
:10196E007408F00008000030FC000030FB0000306E
:10197E00FA000030F9007308720471047004031940
:10198E000F2DFD01FD0AF31BDA2C0130F8000310B8
:10199E00F00DF10DF20DF30DF80BCE2C0130F80019
:1019AE007808FD07CA2C0130F8000310F90DFA0D66
:1019BE00FB0DFC0DF80BDC2C73087702031DF12CCC
:1019CE0072087602031DF12C71087502031DF12CAD
:1019DE0070087402031C022D7008F4027108031CB7
:1019EE00710FF5027208031C720FF6027308031CC6
:1019FE00730FF702791401300310F30CF20CF10C93
:101A0E00F00CFF3E031D032D0130FD02031DDA2CE9
:101A1E007C08F3007B08F2007A08F1007908F000E8
:101A2E000800F50083160313111483128C1D1C2D50
:101A3E008C117108750793008C1D232D8C11710864
:101A4E007204031D452DF6017008760203183D2D14
:101A5E007608373E84008313000893008C1D352DC5
:101A6E008C110130F3007308F6072B2D8316031328
:101A7E00111583128C1D402D8C11080071037204F8
:101A8E00031D0800F6017008760203187A2D8316DE
:101A9E000313911583128C1D512D8C111308F30015
:101AAE0076083E3E84007308831380007008FF3E64
:101ABE00F300FF3003180030F40076087306740448
:101ACE00031D6D2D831603139116702D83160313AC
:101ADE009112111683128C1D712D8C110130F30091
:101AEE007308F6074A2D83160313111583128C1DE6
:101AFE007D2D8C110800093083120313A4002408D5
:101B0E00A0000030A100A20003300A128A15DB23C8
:101B1E000A128A150A128A1577220A128A150030BD
:101B2E000A128A1589220A128A15B2300A128A15E9
:101B3E009F220A128A1514300A128A1589220A1255
:101B4E008A15B8300A128A159F220A128A15831234
:101B5E000313051DD92F83120313A0010130A10019
:101B6E000030A20007300A128A15DB230A128A15EA
:101B7E0083120313C61EB22DA0010130A100003046
:101B8E00A2001F300A128A15DB230A128A1583124D
:101B9E00031346080739A400A501A601A7012708CB
:101BAE00AD002608AC002508AB002408AA001030B2
:101BBE00A4000310AA0DAB0DAC0DAD0DA40BE02DC2
:101BCE00A0010130A1000030A20020300A128A15B7
:101BDE00DB230A128A15831203134708A400460852
:101BEE00A5000030A51BFF30A600A7002408AA07F9
:101BFE00250803110318013E031DAB072608031128
:101C0E000318013E031DAC07270803110318013EFC
:101C1E00031DAD07A0010130A1000030A20021304C
:101C2E000A128A15DB230A128A1583120313460839
:101C3E00A400A5012408A500A40147082407A800B4
:101C4E000030031801302507A90006300A128A1544
:101C5E0089220A128A15831203132A08A4002B085C
:101C6E00A5002C08A6002D08A70002300310A70C13
:101C7E00A60CA50CA40CFF3E031D3D2E2708B1009B
:101C8E002608B0002508AF002408AE000030F3008F
:101C9E000030F2000330F100E830F0003108F700B8
:101CAE003008F6002F08F5002E08F4000A128A15E7
:101CBE00BA240A128A15710883120313B30070082E
:101CCE00B2006430F6000030F7003308F30032083B
:101CDE00F200E830F0000330F1000A128A152723D3
:101CEE000A128A157108F9007008F8000A128A158E
:101CFE0059230A128A157608303E0A128A150423D1
:101D0E000A128A150A30F6000030F7008312031308
:101D1E003308F3003208F2006430F0000030F100B6
:101D2E000A128A1527230A128A157108F9007008FB
:101D3E00F8000A128A1559230A128A157608303EBF
:101D4E000A128A1504230A128A150A30F00000308E
:101D5E00F100831203133308F3003208F2000A1263
:101D6E008A1527230A128A157008303E0A128A1520
:101D7E0004230A128A152E300A128A1504230A1217
:101D8E008A150030F3000030F2000330F100E83025
:101D9E00F000831203133108F7003008F6002F0805
:101DAE00F5002E08F4000A128A156E240A128A15FE
:101DBE00710883120313B3007008B2006430F6008A
:101DCE000030F7003308F9003208F8000A128A15BD
:101DDE0059230A128A157608303E0A128A150423F0
:101DEE000A128A150A30F6000030F7008312031328
:101DFE003308F3003208F2006430F0000030F100D6
:101E0E000A128A1527230A128A157108F90070081A
:101E1E00F8000A128A1559230A128A157608303EDE
:101E2E000A128A1504230A128A150A30F0000030AD
:101E3E00F100831203133308F3003208F2000A1282
:101E4E008A1527230A128A157008303E0A128A153F
:101E5E0004230A128A15D8300A128A159F220A12F2
:101E6E008A151A300A128A1589220A128A158312C5
:101E7E0003132908A5002808A4000310A50CA40C20
:101E8E002408B4002508B500351E542FB409B50931
:101E9E00B40A0319B50A2D30552F2B300A128A15A4
:101EAE0004230A128A15E830F6000330F700831275
:101EBE0003133508F9003408F8000A128A1559235D
:101ECE000A128A157608303E0A128A1504230A125F
:101EDE008A156430F6000030F700831203133508BC
:101EEE00F3003408F200E830F0000330F1000A127B
:101EFE008A1527230A128A157108F9007008F8004E
:101F0E000A128A1559230A128A157608303E0A12C9
:101F1E008A1504230A128A150A30F6000030F700DB
:101F2E00831203133508F3003408F2006430F00016
:101F3E000030F1000A128A1527230A128A15710839
:101F4E00F9007008F8000A128A1559230A128A1528
:101F5E007608303E0A128A1504230A128A152E308C
:101F6E000A128A1504230A128A150A30F00000306C
:101F7E00F100831203133508F3003408F2000A123D
:101F8E008A1527230A128A157008303E0A128A15FE
:101F9E0004230A128A1543300A128A1504230A12E0
:101FAE008A15AE2D0030F3000030F2002730F1001C
:101FBE001030F0000A128A15BE220A128A158312F8
:101FCE000313051DE62FA0010030A100A20003306F
:101FDE000A128A15DB230A128A150030F30000302C
:101FEE00F2002730F1001030F0000A128A15BE22DE
:021FFE000800D9
:02400E0032FF7F
:00000001FF
